{
  "contractName": "DistributorRole",
  "abi": [
    {
      "inputs": [],
      "payable": false,
      "stateMutability": "nonpayable",
      "type": "constructor"
    },
    {
      "anonymous": false,
      "inputs": [
        {
          "indexed": true,
          "name": "account",
          "type": "address"
        }
      ],
      "name": "DistributorAdded",
      "type": "event"
    },
    {
      "anonymous": false,
      "inputs": [
        {
          "indexed": true,
          "name": "account",
          "type": "address"
        }
      ],
      "name": "DistributorRemoved",
      "type": "event"
    },
    {
      "constant": true,
      "inputs": [
        {
          "name": "account",
          "type": "address"
        }
      ],
      "name": "isDistributor",
      "outputs": [
        {
          "name": "",
          "type": "bool"
        }
      ],
      "payable": false,
      "stateMutability": "view",
      "type": "function"
    },
    {
      "constant": false,
      "inputs": [
        {
          "name": "account",
          "type": "address"
        }
      ],
      "name": "addDistributor",
      "outputs": [],
      "payable": false,
      "stateMutability": "nonpayable",
      "type": "function"
    },
    {
      "constant": false,
      "inputs": [],
      "name": "renounceDistributor",
      "outputs": [],
      "payable": false,
      "stateMutability": "nonpayable",
      "type": "function"
    }
  ],
  "bytecode": "0x608060405234801561001057600080fd5b506100293361002e640100000000026401000000009004565b61025d565b61004f816000610095640100000000026103a2179091906401000000009004565b8073ffffffffffffffffffffffffffffffffffffffff167fddbf200aa634dc3fb81cfd68583dd1040d1c751d335e1d86b631bde3e977fea860405160405180910390a250565b6100ae828261017f640100000000026401000000009004565b15610121576040517f08c379a000000000000000000000000000000000000000000000000000000000815260040180806020018281038252601f8152602001807f526f6c65733a206163636f756e7420616c72656164792068617320726f6c650081525060200191505060405180910390fd5b60018260000160008373ffffffffffffffffffffffffffffffffffffffff1673ffffffffffffffffffffffffffffffffffffffff16815260200190815260200160002060006101000a81548160ff0219169083151502179055505050565b60008073ffffffffffffffffffffffffffffffffffffffff168273ffffffffffffffffffffffffffffffffffffffff161415610206576040517f08c379a00000000000000000000000000000000000000000000000000000000081526004018080602001828103825260228152602001806107616022913960400191505060405180910390fd5b8260000160008373ffffffffffffffffffffffffffffffffffffffff1673ffffffffffffffffffffffffffffffffffffffff16815260200190815260200160002060009054906101000a900460ff16905092915050565b6104f58061026c6000396000f3fe608060405234801561001057600080fd5b506004361061005e576000357c010000000000000000000000000000000000000000000000000000000090048063644241db146100635780637250e2241461006d5780638f0c86fa146100b1575b600080fd5b61006b61010d565b005b6100af6004803603602081101561008357600080fd5b81019080803573ffffffffffffffffffffffffffffffffffffffff169060200190929190505050610118565b005b6100f3600480360360208110156100c757600080fd5b81019080803573ffffffffffffffffffffffffffffffffffffffff169060200190929190505050610136565b604051808215151515815260200191505060405180910390f35b61011633610153565b565b61012133610136565b61012a57600080fd5b610133816101ad565b50565b600061014c82600061020790919063ffffffff16565b9050919050565b6101678160006102e590919063ffffffff16565b8073ffffffffffffffffffffffffffffffffffffffff167f126174f6cf49c81cdb4a9214c6b8f037bef55b4ec31e4fc776cea2a1c8a88d5960405160405180910390a250565b6101c18160006103a290919063ffffffff16565b8073ffffffffffffffffffffffffffffffffffffffff167fddbf200aa634dc3fb81cfd68583dd1040d1c751d335e1d86b631bde3e977fea860405160405180910390a250565b60008073ffffffffffffffffffffffffffffffffffffffff168273ffffffffffffffffffffffffffffffffffffffff16141561028e576040517f08c379a000000000000000000000000000000000000000000000000000000000815260040180806020018281038252602281526020018061049f6022913960400191505060405180910390fd5b8260000160008373ffffffffffffffffffffffffffffffffffffffff1673ffffffffffffffffffffffffffffffffffffffff16815260200190815260200160002060009054906101000a900460ff16905092915050565b6102ef8282610207565b610344576040517f08c379a000000000000000000000000000000000000000000000000000000000815260040180806020018281038252602181526020018061047e6021913960400191505060405180910390fd5b60008260000160008373ffffffffffffffffffffffffffffffffffffffff1673ffffffffffffffffffffffffffffffffffffffff16815260200190815260200160002060006101000a81548160ff0219169083151502179055505050565b6103ac8282610207565b1561041f576040517f08c379a000000000000000000000000000000000000000000000000000000000815260040180806020018281038252601f8152602001807f526f6c65733a206163636f756e7420616c72656164792068617320726f6c650081525060200191505060405180910390fd5b60018260000160008373ffffffffffffffffffffffffffffffffffffffff1673ffffffffffffffffffffffffffffffffffffffff16815260200190815260200160002060006101000a81548160ff021916908315150217905550505056fe526f6c65733a206163636f756e7420646f6573206e6f74206861766520726f6c65526f6c65733a206163636f756e7420697320746865207a65726f2061646472657373a265627a7a7230582007b9e4260b83043ec8dc170efb94075b91fea52cbe60691da868852abfd822e264736f6c634300050a0032526f6c65733a206163636f756e7420697320746865207a65726f2061646472657373",
  "source": "pragma solidity ^0.5.10;\n\n// Import the library 'Roles'\n import \"@openzeppelin/contracts/access/Roles.sol\";\n\n// Define a contract 'DistributorRole' to manage this role - add, remove, check\ncontract DistributorRole {\n  using Roles for Roles.Role;\n\n  // Define 2 events, one for Adding, and other for Removing\n  event DistributorAdded(address indexed account);\n  event DistributorRemoved(address indexed account);\n\n  // Define a struct 'Distributors' by inheriting from 'Roles' library, struct Role\n  Roles.Role private Distributors;\n\n  // In the constructor make the address that deploys this contract the 1st Distributor\n  constructor() public {\n    _addDistributor(msg.sender);\n  }\n\n  // Define a modifier that checks to see if msg.sender has the appropriate role\n  modifier onlyDistributor() {\n    require(isDistributor(msg.sender));\n    _;\n  }\n\n  // Define a function 'isDistributor' to check this role\n  function isDistributor(address account) public view returns (bool) {\n    return Distributors.has(account);\n  }\n\n  // Define a function 'addDistributor' that adds this role\n  function addDistributor(address account) public onlyDistributor {\n    _addDistributor(account);\n  }\n\n  // Define a function 'renounceDistributor' to renounce this role\n  function renounceDistributor() public {\n    _removeDistributor(msg.sender);\n  }\n\n  // Define an internal function '_addDistributor' to add this role, called by 'addDistributor'\n  function _addDistributor(address account) internal {\n    Distributors.add(account);\n    emit DistributorAdded(account);\n  }\n\n  // Define an internal function '_removeDistributor' to remove this role, called by 'removeDistributor'\n  function _removeDistributor(address account) internal {\n    Distributors.remove(account);\n    emit DistributorRemoved(account);\n  }\n}",
  "sourcePath": "/mnt/6b0867de-74e1-417d-8281-ce67ccf712c6/LocalD/work/udacity/arch-suplychcian-proj/greenTeaProject/contracts/accesscontrol/DistributorRole.sol",
  "compiler": {
    "name": "solc",
    "version": "0.5.10+commit.5a6ea5b1.Emscripten.clang"
  },
  "schemaVersion": "3.0.23",
  "updatedAt": "2020-04-26T08:37:53.361Z",
  "devdoc": {
    "methods": {}
  },
  "userdoc": {
    "methods": {}
  }
}